:020000040800F2
:10000000E8050020010100083F18000877150008E6
:100010003D18000859020008ED1B00080000000010
:100020000000000000000000000000001D19000892
:100030005B02000800000000411800081F190008BA
:100040001B0100081B0100081B0100081B01000820
:100050001B0100081B0100081B0100085D020008CD
:100060001B0100081B0100081B0100081B01000800
:100070001B0100081B0100081B0100081B010008F0
:100080001B0100081B0100081B0100081B010008E0
:100090001B0100081B0100081B0100081B010008D0
:1000A0001B0100081B0100081B0100081B010008C0
:1000B000751900081B0100081B0100081B0100083E
:1000C0001B0100081B0100081B0100081B010008A0
:1000D0001B0100081B0100081B0100081B01000890
:1000E0001B0100081B0100081B010008DFF80CD0F1
:1000F00000F0A0F8004800472D1C0008E80500208B
:100100000648804706480047FEE7FEE7FEE7FEE7B1
:10011000FEE7FEE7FEE7FEE7FEE7FEE771190008EF
:10012000ED000008D2B201E000F8012B491EFBD21D
:1001300070470022F6E710B513460A4604461946F2
:10014000FFF7F0FF204610BD421C10F8011B0029EC
:10015000FBD1801A704780EA010210B502F000431B
:10016000400022D04A001FD0010E01EB1261C0F303
:100170005600C2F3560240F4000042F40002A0FB15
:10018000022000047F39140400D0401C50EA1240C1
:1001900001D44000491EC2B20C0604EBD010401C32
:1001A0004008802A02D003E0002010BD20F00100AA
:1001B000002900DA0020184310BD962300221146C2
:1001C00000F009B80029A8BF7047401C490008BFCB
:1001D00020F00100704710B4B0FA80FC00FA0CF077
:1001E00050EA010404BF10BC704749B1CCF12004AF
:1001F00021FA04F411FA0CF118BF0121214308433C
:10020000A3EB0C01CB1D4FEA00614FEA102042BF67
:10021000002010BC704700EBC35010440029A4BF5D
:1002200010BC7047401C490008BF20F0010010BC02
:1002300070470000064C074D06E0E06840F00103FF
:1002400094E8070098471034AC42F6D3FFF752FF0A
:10025000B8210008D8210008FEE77047022000F00E
:1002600015B8704770B5044600F012F90546601CD9
:1002700002D004480078044400F00AF9401BA04270
:10028000FAD370BD1400002070470000044910B577
:100290000A68024202D00860FFF7F6FF10BD0000B6
:1002A000140401402DE9F84FDFF8B891002409F15A
:1002B000040A0AF1040B23460F270BF1040EC9E0D0
:1002C0000125A5402A40AA427DD1674ED1F804C03D
:1002D000ACEB0608B44532D014DCBCF1030F3AD0C5
:1002E00009DCBCF1000F2AD0BCF1010F1CD0BCF11D
:1002F000020F31D11DE0BCF1110F17D0BCF1120F6C
:100300002AD119E0B8F5881F19D006DCB8F5803F6E
:1003100015D0B8F5801F1FD111E0B8F5001F0ED021
:10032000B8F5041F18D10AE0CB6815E0CB681B1D97
:1003300012E0CB6808330FE0CB680C330CE08B681D
:100340002BB1012B4FF0080303D0456104E00423D7
:1003500002E0056100E00023FF2A01D8064601E023
:1003600000F104064FEA840501D9A5F12005D6F86D
:10037000008007FA05FC28EA0C0803FA05F548EAAC
:100380000508C6F800804D68ED0062D5374DAE69AE
:1003900046F00106AE61AD6924F0030605F00105E3
:1003A0000095334D06EB050CDCF80850A607360F18
:1003B00007FA06F825EA0805DFF8B880404503D1BA
:1003C0004FF0000817E044E0DFF8AC80404502D170
:1003D0004FF001080FE0DFF8A480404502D14FF054
:1003E000020808E0DFF89880404502D14FF003088A
:1003F00001E04FF0040808FA06F848EA0508CCF8CE
:1004000008804D68D9F80060ED034D4601D51643CC
:1004100000E096432E604D68DAF80060AD03554663
:1004200001D5164300E096432E604D68DBF800606E
:10043000ED025D4601D5164300E096432E604D68FF
:10044000DEF80060AD02754601D5164300E0964324
:100450002E60641C0D682A46E5407FF431AFBDE88C
:10046000F88F00000004014000001110001002404D
:100470000000014000080140000C01400010014054
:10048000001401400AB1016170470904FBE7000054
:1004900001488068704700001400002070B5040017
:1004A00004D094F83900002510B106E0012070BD99
:1004B00084F83850204600F0D7FF242084F8390013
:1004C0002068C16821F40051C160204601F000FBA2
:1004D0002068016921F4904101612068416921F09F
:1004E000220141612068416941F0080141612068B1
:1004F000C16841F40051C160E563202084F83900EF
:1005000084F83A00002070BD70B5040025D094F83E
:100510003D00002520B984F83C50204600F0B8F892
:10052000242084F83D002068016821F00101016069
:100530002068016841F4004101602068016821F4ED
:100540000041016000F000FA4D4A6168914201D813
:100550004C4900E04C49884201D2012070BD4B4912
:100560002368B0FBF1F15E6826F03F060E435E6043
:100570006368934206D94FF4967359434FF47A73E4
:10058000B1FBF3F12368491C1E6A26F03F06314394
:1005900019626168914210D84900401EB0FBF1F227
:1005A000521CC2F30B02042A01D2042022E0B0FB49
:1005B000F1F0401CC0F30B001CE0A268F2B301EBA9
:1005C000C10303EB0116431EB3FBF6F35B1C43F4BC
:1005D00080431B0549D092B301EBC10202EB01112C
:1005E000401EB0FBF1F0401CC0F30B0040F4804013
:1005F00040F400402168CA694CF6FF739A431043E7
:10060000C861D4E9071001432068026822F0C002E3
:1006100011430160D4E9030101432068826848F274
:10062000FF339A4311438160D4E9050108432168EF
:10063000CA6822F0FF021043C86001E00EE016E035
:100640002068016841F0010101602564202084F8E0
:100650003D00256384F83E50002070BD01EB41064B
:10066000431EB3FBF6F35B1CB3E70120C2E701EBCB
:100670004101401EB0FBF1F0401CC0F30B00B7E796
:10068000A086010080841E0000093D0040420F004A
:1006900010B586B00021009101910291039100688C
:1006A0000F4988421AD10F4CA06940F00800A061A0
:1006B000A069694600F008000490C0200090122054
:1006C0000190032003900848FFF7ECFDE06940F437
:1006D0000010E061E06900F40010049006B010BD65
:1006E0000054004000100240000C014002488168A4
:1006F000027811448160704714000020074810B54B
:10070000016841F010010160032000F075F800203D
:1007100000F006F800F024F8002010BD0020024090
:1007200070B50D4D04464FF47A712878B1FBF0F0A6
:100730000A490968B1FBF0F000F06FFC48B9102CD1
:1007400007D200222146501E00F036F800206C60CF
:1007500070BD012070BD00001400002020000020AA
:100760000C4808B5816941F001018161816901F09E
:1007700001010091C16941F08051C161C06900F07F
:10078000805000900448416821F0E06141F0007120
:10079000416008BD0010024000000140002809DB54
:1007A00000F01F02012191404009800000F1E0208B
:1007B000C0F8001170470000F0B40E4B1B680C46E7
:1007C000C3F30223C3F10705042D00D90425191D25
:1007D000072901D2002300E0DB1E012606FA05F1FD
:1007E000491E214099409E40761E16403143F0BC80
:1007F00001F0FDB90CED00E0064900F007020868C1
:100800004FF6FF03184040EA0220034A10430860F5
:10081000704700000CED00E00000FA052DE9F047FC
:100820000F46050061D0434E306800F00700B84223
:1008300009D2306820F0070038433060306800F09B
:100840000700B84251D128683B4C810712D54007B8
:1008500003D5606840F4E06060602878000703D545
:10086000606840F4605060606068A96820F0F00043
:10087000084360602878C00728D06868012810D035
:100880002168022810D0890700292EDA616821F03A
:10089000030101436160FFF7FBFD804641F28839A7
:1008A0000DE021688903EFE78901EDE7FFF7F0FD2F
:1008B000A0EB0801494502D90320BDE8F087606834
:1008C000696800F00C00B0EB810FEFD1306800F0E8
:1008D0000700B8420BD9306820F007003843306079
:1008E000306800F00700B84201D00120E5E7287821
:1008F000400705D56068E96820F4E060084360605F
:100900002878000706D56068296920F4605040EA1D
:10091000C100606000F038F86168084AC1F3031153
:10092000515CC8400649086006480068FFF7F8FEB9
:100930000020C2E70020024000100240A021000871
:10094000200000201800002004480549006849687C
:10095000044AC1F30221515CC840704720000020C6
:1009600000100240B02100080448054900684968A9
:10097000044AC1F3C221515CC840704720000020E6
:1009800000100240B021000812A185B00FC98DE807
:100990000F0014A0144A006804905168134801F035
:1009A0000C03042B10D0082B0ED1C1F38343C903D1
:1009B0001DF803000AD5516804AAC1F34041515CF7
:1009C0000A4A5043B0FBF1F005B07047084948436C
:1009D000FAE7000002030405060708090A0B0C0DDC
:1009E0000E0F1010010200000010024000127A00E9
:1009F00000093D002DE9F84F040070D02078C04D6B
:100A0000C00749D06868C0F38100012807D0686832
:100A1000C0F38100022809D16868C00306D52868A0
:100A2000800339D560680028E7D035E06068B0F50C
:100A3000803F0BD010B1B0F5A02F11D0286820F462
:100A400080302860286820F4802002E0286840F484
:100A500080302860606890B1FFF71AFD06460AE012
:100A6000286840F480202860F0E700BFFFF710FD01
:100A7000801B642873D828688003F7D50CE0FFF743
:100A800007FD064605E000BFFFF702FD801B642856
:100A9000F0D828688003F7D420789A4E80074FF06A
:100AA00001094FF0000839D5686810F00C0F07D025
:100AB0006868C0F38100022809D16868C00306D4C1
:100AC0002868800714D52069012808D110E0206922
:100AD000B0B1C6F80090FFF7DBFC074605E00AE17D
:100AE000FFF7D6FCC01B0228C4D828688007F7D5BA
:100AF0002868616920F0F80040EAC10028600DE034
:100B0000C6F80080FFF7C4FC074604E0FFF7C0FC0E
:100B1000C01B022823D828688007F7D42078000754
:100B20002CD57948A169D9B1C0F80090FFF7B0FC85
:100B3000074604E0FFF7ACFCC01B02280FD8686A28
:100B40008007F7D571484FF4FA510068B0FBF1F017
:100B5000009000BF0098411E0091FAD20EE080E0A4
:100B6000C0F80080FFF794FC074604E0FFF790FC14
:100B7000C01B022875D8686A8007F7D42078400720
:100B800060D5E8690027C00008D4E86940F08050CB
:100B9000E861E869012700F0805000905C48016836
:100BA000C90513D40168834641F480710160FFF7E1
:100BB0006FFC824606E000BFFFF76AFCA0EB0A006C
:100BC00064284ED8DBF80000C005F5D5E0680128A0
:100BD0000AD008B1052813D0286A20F00100286245
:100BE000286A20F0040002E0286A40F00100286230
:100BF000E06841F2883B98B1FFF74AFC82460BE07F
:100C0000286A40F004002862EEE700BFFFF740FCCE
:100C1000A0EB0A0159455AD8286A8007F6D50CE09E
:100C2000FFF736FC824605E0FFF732FCA0EB0A0135
:100C300059454CD8286A8007F6D41FB1E86920F0DE
:100C40008050E861E06988B36968C1F381010229D5
:100C500044D00228C6F8608004D0FFF719FC04468F
:100C600038E034E0FFF714FC074604E0FFF710FC1F
:100C7000C01B02282BD828688001F7D4206AB0F561
:100C8000803F05D16868A16820F40030084368609F
:100C9000D4E908010843696821F4741108436860C5
:100CA000C6F86090FFF7F4FB044606E025E000BFBD
:100CB000FFF7EEFB001B022809D828688001F7D552
:100CC0001BE000BFFFF7E4FB001B022802D9032052
:100CD000BDE8F88F28688001F4D40EE00128F7D031
:100CE0006868226A00F48031914204D1616A00F49C
:100CF0007010884201D00120EAE70020E8E70000F8
:100D000000100240000042428004424220000020C5
:100D10000070004070B5040009D0606A002540B141
:100D200025616561A56294F8510040B10CE0012095
:100D300070BD6068B0F5827FF4D0E561F2E784F8B9
:100D40005050204600F040F8022084F851002068FE
:100D5000016821F040010160A088218900F48270BF
:100D600001F404410843A18901F400610843217C96
:100D700001F002010843217D01F001010843218BAC
:100D800001F400710843217F01F03801084394F811
:100D9000201001F080010843218D01F40051084327
:100DA00021680860A069042101EA104021684860B8
:100DB0002068C16921F40061C1616565012084F882
:100DC0005100002070BD000030B585B000240094B3
:100DD00001940294039400681449884223D1144872
:100DE000816941F480518161816901F480510491EC
:100DF000816941F00401816180690E4D00F00400B9
:100E00000490A020009002200190032003906946E6
:100E10002846FFF747FA4020CDE9000469462846F6
:100E20000294FFF73FFA05B030BD000000300140EA
:100E300000100240000801402DE9F84F044690F8E8
:100E4000500000270A9E1D4692468B464FF001092E
:100E500001280ED0012084F85000FFF719FB8046CE
:100E600094F85100616801280CD0B1F5827F07D158
:100E700002E00220BDE8F88FA16809B9042801D07A
:100E80000227C2E0BBF1000F27D0BAF1000F24D037
:100E90001DB394F85100042802D0052084F85100B5
:100EA00000206065C4F838A0E587A587C4F830B095
:100EB000E586A5862064606420680168490603D43D
:100EC000016841F040010160E068B0F5006F6068C2
:100ED00005D0E8B3012D46D07FE0012795E008B1A9
:100EE000012D39D1206B21680088C860206B801CDF
:100EF0002063E08E401EE0862EE02068816889072E
:100F00000FD5E18E69B1B9F1010F0AD1216B0988C2
:100F1000C160206B801C2063E08E401EE0864FF095
:100F2000000920688168C9070CD0E18F51B1C06801
:100F3000A16B0880A06B801CA063E08F401EE0873F
:100F40004FF00109FFF7A4FAA0EB0800B04200E05F
:100F500009E001D3701C50D1E08E0028CDD1E08F84
:100F60000028CAD13FE0206B216800780873206B0D
:100F7000401C2063E08E401EE0862EE020688168E1
:100F800089070FD5E18E69B1B9F1010F0AD1216B43
:100F900009780173206B401C2063E08E401EE086C0
:100FA0004FF0000920688168C9070CD0E18F51B16A
:100FB000C068A16B0870A06B401CA063E08F401E4E
:100FC000E0874FF00109FFF763FAA0EB0800B04299
:100FD00002D3701C01D010E07EB1E08E0028CDD18C
:100FE000E08F0028CAD142463146204600F029FC55
:100FF00028B101272020606507E0032705E0A068ED
:1010000018B92068C16880680090012084F85100F8
:10101000002084F8500038462CE710B5401EB0F18F
:10102000807F01D3012010BD4FF0E02460610F21CB
:10103000601700F0DCFD0020A06107202061002087
:1010400010BD70477047000070B590F83C20012A31
:1010500026D0012480F83C40022280F83D2003681D
:101060005A689D6822F070060A6832435A600D4B38
:1010700002689A4208D0B2F1804F05D00A4B9A42DA
:1010800002D00A4B9A4204D1496825F080031943E3
:10109000916080F83D40002180F83C10084670BD0A
:1010A000022070BD002C01400004004000080040F8
:1010B00010B5040003D094F83D0010B107E0012002
:1010C00010BD002084F83C00204600F01FF80220EC
:1010D00084F83D00211D206800F052FC012084F8B6
:1010E000460084F83E0084F83F0084F8400084F80D
:1010F000410084F8420084F8430084F8440084F8F6
:10110000450084F83D00002010BD000008B50168CE
:101110001648B1F1804F0AD0154A914219D1C169E0
:1011200041F00201C161C06900F002001BE0C16929
:1011300041F00101C161C069002200F0010000908E
:1011400005211C20FFF738FBBDE808401C20FFF7F5
:1011500025BB084A914207D1C16941F00401C16130
:10116000C06900F00400009008BD000000100240BB
:10117000000400400008004090F83D10012901D013
:1011800001207047022180F83D100168CA6842F0D2
:101190000102CA6000680B49884208D0B0F1804F54
:1011A00005D00949884202D00849884204D18168A3
:1011B00001F00701062903D0016841F00101016037
:1011C00000207047002C014000040040000800404F
:1011D00070B5044690F83C00012817D0012584F82A
:1011E0003C50022084F83D002068826822F077029B
:1011F00022F47F4282600868502830D00DDC20281D
:101200004DD005DC98B310283BD148E0022070BDDA
:10121000302844D0402834D139E0602828D07028C4
:1012200006D0B0F5805F2CD0B0F5005F29D10AE080
:10123000CB68D1E90121206800F0D8FB20688168E3
:1012400041F0770109E0CB68D1E90121206800F085
:10125000CDFB2068816841F48041816011E0CA685B
:101260004968206800F0D4FB5021206807E016E0B0
:10127000CA684968206800F0DCFB6021206800F043
:10128000BFFB84F83D50002084F83C0070BDCA6864
:101290004968206800F0BCFB40212068EFE7226825
:1012A00001461046EBE7704770B5044600680169D7
:1012B0004FF00005C943890715D4C168C9438907A0
:1012C00011D4E91E01610120207720688069800720
:1012D000204602D0FFF7E7FF04E000F098F8204630
:1012E00000F096F8257720680169C943490717D4AB
:1012F000C168C943490713D46FF00401016102209A
:1013000020772068806910F4407F204602D0FFF7E4
:10131000CAFF04E000F07BF8204600F079F825775A
:1013200020680169C943090716D4C168C943090780
:1013300012D46FF008010161042020772068C06991
:101340008007204602D0FFF7AEFF04E000F05FF810
:10135000204600F05DF8257720680169C943C90679
:1013600017D4C168C943C90613D46FF010010161D5
:10137000082020772068C06910F4407F204602D002
:10138000FFF791FF04E000F042F8204600F040F83B
:10139000257720680169C943C90708D1C168C943D5
:1013A000C90704D1891E0161204600F033F8206886
:1013B0000169C943090609D4C168C943090605D4AE
:1013C0006FF0800101612046FFF73BFE2068016954
:1013D000C943490609D4C168C943490605D46FF019
:1013E00040010161204600F03DF820680169C943D1
:1013F00089060BD4C168C943890607D46FF0200160
:1014000001612046BDE87040FFF71CBE70BD70470B
:101410007047000070B50068B0F1804F1AD10E4CD3
:101420002088FEF7CAFE0D4D2946FEF794FE606047
:101430006088FEF7C2FE2946FEF78DFEA060002000
:1014400007492080608009684862BDE87040044810
:10145000FFF792BE70BD000000000020000048426F
:10146000D00000207047000000B585B00021009139
:1014700001910291039100680F4988421AD10F48E7
:10148000C16941F40031C161C16901F400310491C5
:10149000816941F0040181618069694600F00400BE
:1014A000049004200090122001900320039004482F
:1014B000FEF7F8FE05B000BD0044004000100240F9
:1014C000000801402DE9F843044690F839001F4612
:1014D00016460D4620284CD1C5B1BEB194F838004F
:1014E000012846D0012084F838004FF00008C4F8E5
:1014F0003C80212084F83900FEF7CAFFA68481468B
:10150000E684A068B0F5805F03D004E00120BDE868
:10151000F883206928B12E465FF0000584F83880F2
:101520000EE00026FAE78021204600F02DFBA0B94E
:10153000AEB116F8010B21684860E08C401EE084D3
:10154000E08C4B464FF0000200970028EBD14FF0A3
:101550004001204600F018FB30B10320D7E735F8F2
:10156000020BC0F30800E6E7202084F839000020D1
:10157000CDE70220CBE7FEE72DE9F04385B000245C
:101580002D480094019402940394816941F0100164
:101590008161816901F010010491816941F02001AC
:1015A0008161816901F020010491816941F00401A8
:1015B0008161816901F004010491816941F00801B0
:1015C00081618069DFF8748000F008004FF40055F5
:1015D0000490002229464046FEF754FFDFF8609051
:1015E00040F20147002239464846FEF74BFF0126EC
:1015F000CDE90056022569464046CDE90245FEF791
:1016000051FECDE9007669464846CDE90245FEF730
:1016100049FE0C480095CDE9010469464846FEF7AD
:1016200041FE002202210720FFF7C6F80720FFF73E
:10163000B5F805B0BDE8F08300100240001001408D
:10164000000C0140000021100D4810B50B4901604D
:101650000C49416000214FF480428160C0E90312CF
:1016600041618161C1610162FEF74EFF002803D034
:10167000BDE81040FEF7F5BD10BD0000005400406D
:1016800024000020A0860100104810B50E4901601A
:101690004FF48271416000218160C1604FF400729B
:1016A0000161C0E905121022C0E90721416281628F
:1016B0000A21C162FFF72EFB002803D0BDE81040CD
:1016C000FEF7CFBD10BD00000030014078000020C3
:1016D00010B586B000241648009401940294039437
:1016E00004944FF08041059401600F21C0E901147A
:1016F00040F2E731C0E903148461FFF7D9FC08B177
:10170000FEF7AFFD4FF48050009069460848FFF7A0
:101710005FFD08B1FEF7A5FD049404A904480594F3
:10172000FFF792FC002801D0FEF79BFD06B010BD2C
:10173000D000002010B586B0002417480094019412
:1017400002940394049413490594016040F2E73134
:10175000C0E901146321C0E903148461FFF7A8FC08
:1017600008B1FEF77EFD4FF48050009069460A48AC
:10177000FFF72EFD08B1FEF774FD049404A9064896
:101780000594FFF761FC002801D0FEF76AFD06B062
:1017900010BD0000000400401801002010B586B004
:1017A000002417480094019402940394049413496C
:1017B0000594016040F2E731C0E901146321C0E9FA
:1017C00003148461FFF774FC08B1FEF74AFD4FF47F
:1017D0008050009069460A48FFF7FAFC08B1FEF70E
:1017E00040FD049404A906480594FFF72DFC002849
:1017F00001D0FEF736FD06B010BD00000008004025
:10180000600100200C4810B50A4901604FF4E13135
:101810004160002181600C22C160C0E90412816135
:10182000C161FEF73BFE002803D0BDE81040FEF783
:1018300018BD10BD00440040A8010020FEE770471D
:10184000704738B50B46009204460022802100F014
:1018500009F8002804D0606D40F020006065032086
:1018600038BD00002DE9F8431E46914688460446DF
:10187000089DFEF70DFE401B351AFEF709FE0746D0
:1018800025480068C0F3CB30684338E0701C37D07F
:10189000FEF7FEFDC01BA84203D215B1009860B34D
:1018A0002CE02068416821F0E00141606068B0F5FB
:1018B000827F0BD1A068B0F5004F02D0B0F5806FE9
:1018C00004D12068016821F040010160A06AB0F5F0
:1018D000005F09D12068016821F40051016020688F
:1018E000016841F400510160012084F8510000209A
:1018F00084F850000320BDE8F8830025401E0090C6
:101900002068816838EA010004D000214945BDD132
:101910000020F0E70121F9E7200000207047FEF7E2
:10192000E5BE30B58FB028216846FEF702FC1421D1
:101930000AA8FEF7FEFB01210804CDE900100024EF
:10194000029402250491CDE907504FF440200990FC
:101950006846FFF74FF80F20CDE90A056802CDE988
:101960000C4001210AA80E94FEF758FF0FB030BDBD
:10197000704700000148FFF797BC0000D00000202E
:10198000F0B50268164B174C174D4FF08047984240
:1019900005D0B84203D0A04201D0A84203D122F022
:1019A00070064A683243984205D0B84203D0A0423C
:1019B00001D0A84203D122F44074CA6822434C6982
:1019C00022F08002224302608A68C2620A68826250
:1019D000984201D10969016301214161F0BD000014
:1019E000002C0140000400400008004010B584684D
:1019F00042EA032224F47F440A432243826010BD5A
:101A0000826822F070020A4342F007018160704749
:101A100010B5036A046A24F001040462846924F0A6
:101A2000F00444EA021423F00A020A4384610262C9
:101A300010BD10B5036A23F0100303628369046AC2
:101A400023F4704343EA023224F0A00343EA011175
:101A50008261016210BD00002DE9F0410F4605468C
:101A600000240FE015F8016B08A000EB16100078B9
:101A700000F016F806F00F0004A1085C00F010F862
:101A8000641CA4B2BC42EDD3BDE8F08130313233E6
:101A9000343536373839414243444546000000006A
:101AA00001B5C823012269460148FFF70BFD08BDB7
:101AB000A801002010B50446FEF746FB214682B27D
:101AC000BDE81040C8230148FFF7FCBCA801002076
:101AD00070B5044600680169E26821F44051114381
:101AE00001612169A0680843616908432168CA68E7
:101AF00041F20C639A430243CA6020684169A269BB
:101B000021F44071114341611E492068884202D18D
:101B1000FEF72AFF01E0FEF717FF00EBC00101EB23
:101B20000012606864218000B2FBF0F3B3FBF1F3B4
:101B30006FF018067343B2FBF0F5B2FBF0F605EB5D
:101B40008305322303EB0515B5FBF1F5B6FBF1F682
:101B500005F0F00505EB0615B2FBF0F6B2FBF0F070
:101B6000B0FBF1F06FF01802504306EB800003EB7E
:101B70000010B0FBF1F0216800F00F0028448860ED
:101B800070BD0000003801402DE9F041984617462D
:101B90000E460446069D1DE0681C1BD02DB1FEF7C5
:101BA00077FCA0EB0800A84214D92068C16821F492
:101BB000D071C1602068416921F00101416120209C
:101BC00084F8390084F83A00002084F838000320B3
:101BD000BDE8F0812068006836EA000004D00020EB
:101BE000B842D9D00020F3E70120F9E7FEE7090762
:101BF000090E002804DB00F1E02080F80014704793
:101C000000F00F0000F1E02080F8141D704702E0A2
:101C100008C8121F08C1002AFAD170477047002077
:101C200001E001C1121F002AFBD17047FEF766FDDB
:101C3000FFF777FEFFF7A0FCFFF726FDFFF748FD53
:101C4000FFF778FDFFF7AAFDFFF7DCFDFFF7FCFCCF
:101C500000F010FAFEE70000012211460148FEF7ED
:101C600011BC0000000C0140002201210148FEF7D8
:101C700009BC0000000C01401CB50DA40522214642
:101C8000302000F0C4F905226946102000F08EF8DB
:101C90000020694614F8012B0B5C9A4201D0002009
:101CA0001CBD401CC0B20528F4D301201CBD00009F
:101CB000746573746100000010B5072000F0C4F86B
:101CC00040F07001BDE81040072000F0B3B9FF21DB
:101CD000E22000F0AFB9FF21E12000F0ABB910B570
:101CE000172000F0B1F800F0030010BD10B5082176
:101CF000002000F09FF93F21012000F09BF9032113
:101D0000022000F097F90321084600F093F903211F
:101D1000042000F08FF90221052000F08BF90E213C
:101D2000062000F087F90021072000F083F9002148
:101D3000112000F07FF90021122000F07BF9002132
:101D4000132000F077F90021142000F073F900212E
:101D5000152000F06FF90021162000F06BF900212A
:101D60001C2000F067F900211D2000F063F9FFF747
:101D7000AEFFFFF7B0FFFFF79FFFBDE81040FFF792
:101D80006BBF000001B582B04FF4FA6000900123F0
:101D900001AA02A90448FFF74FF808B1FEF761FA5B
:101DA0009DF804000EBD00007800002070B51546B7
:101DB0000C460646FFF758FF3046FFF7E3FF04E006
:101DC000FF20FFF7DFFF04F8010B6D1EEDB2F7D225
:101DD000BDE87040FFF740BF002200F001B80000EE
:101DE0002DE9F041804617460C46072000F02CF8FC
:101DF000C0F342050026062D20D28FB1FFF734FF35
:101E00006020FFF7BFFFFF20FFF7BCFF0746FFF78B
:101E100023FF2770202F08D92670FFF758FF04E012
:101E20000848405D00F010F8207022781AB1414651
:101E30006120FFF7BBFF2846BDE8F0812670FF2038
:101E4000FAE700009321000810B50446FFF70CFFE5
:101E500004F01F00FFF796FFFF20FFF793FF0446F3
:101E6000FFF7FAFE204610BD2DE9F0410546154F5B
:101E70000E46072D23D2DFE805F004041C1C1C1CB1
:101E800004000320FFF7E0FF401CC4B22644FFF724
:101E9000EBFE785D40F02000FFF774FF16F80109B3
:101EA000FFF770FF641EE4B2F8D2BDE8F041FFF71F
:101EB000D3BE0978785DBDE8F04100F0BBB8BDE85D
:101EC000F081000099210008801EC1B2032000F0BB
:101ED000B1B810B504460020FFF7B6FF04F00C01BE
:101EE00020F00C000143BDE81040002000F0A2B833
:101EF00010B504460620FFF7A7FF20F02801214374
:101F0000BDE81040062000F095B810B504461D202D
:101F1000FFF79AFF34B140F004011D2000F08AF869
:101F20001F2105E020F004011D2000F083F80021AE
:101F3000BDE810401C2000F07DB810B5044600201C
:101F4000FFF782FF04F0010120F001000143BDE82A
:101F50001040002000F06EB810B504461D20FFF7B9
:101F600073FF14B140F0020101E020F00201BDE86E
:101F700010401D2000F05EB810B504460020FFF7A9
:101F800063FF022C06D020F00201BDE810400020C3
:101F900000F050B840F00201F7E70146052000F0DC
:101FA00049B800002DE9F041054617460E460220CB
:101FB000FFF74AFF0124AC40204300F03F0102201C
:101FC00000F038F80A4807F03F01405D00F032F8B1
:101FD0000120FFF739FF012E06D020EA0401BDE8F9
:101FE000F041012000F026B80443E1B2F7E7000019
:101FF0009321000810B504460620FFF725FF20F0C6
:1020000006012143BDE81040062000F013B870B56A
:1020100015460C460646FFF727FE304601E014F849
:10202000010BFFF7AFFE6D1EEDB2F8D2BDE87040B8
:10203000FFF712BE70B50D460446FFF715FE202CC3
:1020400006D204F01F0040F02000FFF79BFE0AE0DC
:102050002046FFF797FEE12C08D0E22C06D0E32CB7
:1020600004D0FF2C02D02846FFF78CFEBDE870405C
:10207000FFF7F2BD30A0FFF71DFD364D4FF4806431
:10208000002221462846FEF7FDF933A0FFF712FD96
:1020900005E036A0FFF70EFD3220FEF7E3F8FFF76C
:1020A000EBFD0028F5D033A0FFF704FDFFF71EFE7F
:1020B0002820FFF772FF0820FFF71AFF0C20FFF718
:1020C00008FF0320FFF700FF2C490120FFF7CCFE9B
:1020D00001210A220846FFF765FF0620FFF78AFF65
:1020E0000120FFF72AFFFFF7E7FD0220FFF744FF7B
:1020F0000120FFF70AFF0120FFF72EFF01222146F2
:102100002846FEF7BFF91E4CFFF7E9FD0128FBD07A
:102110001B49491C481CFFF75FFE2070FFF7CCFDF0
:1021200018A0FFF7C7FC16480421801CFFF794FC99
:1021300007A0FFF7BFFCE7E70D0A53544D333246C3
:102140003330335245206973206F6E6C696E652E93
:102150000D0A0000000C01406E524632344C303102
:102160002B20636865636B3A200000004641494CB0
:102170000D0A00004F4B0D0A0000000090210008DE
:102180000C00002052656365697665643A200000A2
:102190004553421112131415160A0B0C0D0E0F1095
:1021A0000000000000000000010203040607080907
:1021B0000000000001020304D821000800000020F4
:1021C000240000000E1C0008FC2100082400002050
:1021D000C40500001E1C00080000000000000000F4
:1021E00000000000000000000000000001000000EE
:0C21F00010000000000000000024F400BB
:04000005080000ED02
:00000001FF
